:020000000C945E
:1000020047000C9400000C9400000C9400000C9427
:1000120000000C9400000C9400000C9400000C945E
:1000220000000C9400000C9400000C9400000C944E
:1000320000000C9400000C9400000C9400000C943E
:1000420000000C9400000C9476000C9400000C94B8
:1000520000000C9400000C9400000C9400000C941E
:1000620000000C9400000C9400000C9400000C940E
:1000720000000C9400000C9400000000000000003E
:10008200010000000A0003007C000000F894EE2743
:10009200EFBBF1E0F5BFE5BF8DE0A2E0BB27ED933A
:1000A2008A95E9F780E094E0A0E0B1E0ED93019752
:1000B200E9F7E6E8F0E085919591009761F0A59166
:1000C200B59105901590BF01F00105900D92019731
:1000D200E1F7FB01F0CFE0E0EEBBEFEFEDBFE4E0D4
:1000E200EEBFC0E0D2E00C94FD000A921A929A93FD
:1000F200AA93BA93EA93FA93EFB7EA93EEE4E6BDD2
:10010200E9B1E1705E2E6624E9B1E2707E2E8824A8
:10011200052C062821F033244424BB24CC24072CAC
:10012200082831F0E4E0F0E03E2E4F2EBB24CC2430
:1001320000240314040451F0E2E0F0E0E315F405B6
:1001420029F0E4E0F0E0E315F40539F4E8E0F0E04A
:10015200EB15FC0509F4AAD006C0E2E0F0E0EB15CD
:10016200FC0509F4A3D00B2C0C2881F5E32DF42D0A
:10017200309721F4EFEFE5B9E5EF27C0E130A0E0D9
:10018200FA0721F4EEEEE5B9E5ED1FC0E230A0E09A
:10019200FA0721F4EDEDE5B9EFEE17C0E330A0E088
:1001A200FA0721F4EEEEE5B9EFEE0FC0E430A0E07D
:1001B200FA0721F4E8E8E5B9EAEE07C0E530A0E085
:1001C200FA0721F4E4E4E5B9EAECE8B9E92DFA2DFD
:1001D2003196A1E0B0E09AD09E2EAF2EE1E0F0E0A1
:1001E200BE0ECF1EE991EFBFF991E991B991A991A4
:1001F2009991199009901895E0E8E0936100E0E088
:10020200E0936100E1B9E2B9EFEFE4B9E5B9E7B92A
:10021200E8B9E0E0EAB9EFEFEBB9E0E0E4BDE5E030
:10022200E5BDEEE4E6BDE0E0E7BDE8BDE0938000B9
:10023200E0938100E0938500E0938400E0938700DF
:10024200E0938600E0938900E0938800E0938B00BE
:10025200E0938A00E093B600E093B000E093B1002F
:10026200E093B200E093B300E093B400E1E0E093E6
:100272006E00E0E0E0936F00E0937000E0936900AD
:10028200EDBBE0936800E093C100E093C900E0E8B1
:10029200E0BFE0E0E0937B00E0937F00E0937A0030
:1002A200ECBDE093BC007894FFCFFFCFBB24CC24FD
:1002B200A32DB42D1196E6E0F0E01AD03E2E4F2E7B
:1002C2000895F195E195F04008950024112490E1FC
:1002D200AA0FBB1F001C111C0E1A1F0A18F40E0EC7
:1002E2001F1E01C0A1609A9599F7FD01D0010895E2
:1002F200E894B7FF04C0B195A195B0406894F7FDAA
:10030200E0DFE3DFFD010EF4DCDF0895E894F7FFA0
:1003120002C0D7DF6894EA23FB230EF4D2DF0895EC
:00000001FF
